{
  "_format": "hh-sol-artifact-1",
  "contractName": "NaughtyHamsterNFT",
  "sourceName": "contracts/NaughtyHamster.sol",
  "abi": [
    {
      "inputs": [
        {
          "internalType": "uint256",
          "name": "mintMaxSize_",
          "type": "uint256"
        }
      ],
      "stateMutability": "nonpayable",
      "type": "constructor"
    },
    {
      "inputs": [],
      "name": "CallerIsContract",
      "type": "error"
    },
    {
      "inputs": [],
      "name": "MintMoreThanAllowed",
      "type": "error"
    },
    {
      "inputs": [],
      "name": "MintStop",
      "type": "error"
    },
    {
      "inputs": [],
      "name": "NeedSendMoreETH",
      "type": "error"
    },
    {
      "inputs": [],
      "name": "NotInWhiteList",
      "type": "error"
    },
    {
      "inputs": [],
      "name": "PublicMintIsNotBegin",
      "type": "error"
    },
    {
      "inputs": [],
      "name": "ReachMaxSupply",
      "type": "error"
    },
    {
      "inputs": [],
      "name": "TokenNotExistent",
      "type": "error"
    },
    {
      "anonymous": false,
      "inputs": [
        {
          "indexed": true,
          "internalType": "address",
          "name": "owner",
          "type": "address"
        },
        {
          "indexed": true,
          "internalType": "address",
          "name": "approved",
          "type": "address"
        },
        {
          "indexed": true,
          "internalType": "uint256",
          "name": "tokenId",
          "type": "uint256"
        }
      ],
      "name": "Approval",
      "type": "event"
    },
    {
      "anonymous": false,
      "inputs": [
        {
          "indexed": true,
          "internalType": "address",
          "name": "owner",
          "type": "address"
        },
        {
          "indexed": true,
          "internalType": "address",
          "name": "operator",
          "type": "address"
        },
        {
          "indexed": false,
          "internalType": "bool",
          "name": "approved",
          "type": "bool"
        }
      ],
      "name": "ApprovalForAll",
      "type": "event"
    },
    {
      "anonymous": false,
      "inputs": [
        {
          "indexed": true,
          "internalType": "address",
          "name": "previousOwner",
          "type": "address"
        },
        {
          "indexed": true,
          "internalType": "address",
          "name": "newOwner",
          "type": "address"
        }
      ],
      "name": "OwnershipTransferred",
      "type": "event"
    },
    {
      "anonymous": false,
      "inputs": [
        {
          "indexed": true,
          "internalType": "address",
          "name": "from",
          "type": "address"
        },
        {
          "indexed": true,
          "internalType": "address",
          "name": "to",
          "type": "address"
        },
        {
          "indexed": true,
          "internalType": "uint256",
          "name": "tokenId",
          "type": "uint256"
        }
      ],
      "name": "Transfer",
      "type": "event"
    },
    {
      "inputs": [],
      "name": "DevWhiteListMintMaxCount",
      "outputs": [
        {
          "internalType": "uint256",
          "name": "",
          "type": "uint256"
        }
      ],
      "stateMutability": "view",
      "type": "function"
    },
    {
      "inputs": [],
      "name": "IsMinting",
      "outputs": [
        {
          "internalType": "bool",
          "name": "",
          "type": "bool"
        }
      ],
      "stateMutability": "view",
      "type": "function"
    },
    {
      "inputs": [],
      "name": "MINT_PRICE",
      "outputs": [
        {
          "internalType": "uint256",
          "name": "",
          "type": "uint256"
        }
      ],
      "stateMutability": "view",
      "type": "function"
    },
    {
      "inputs": [],
      "name": "MintMaxSize",
      "outputs": [
        {
          "internalType": "uint256",
          "name": "",
          "type": "uint256"
        }
      ],
      "stateMutability": "view",
      "type": "function"
    },
    {
      "inputs": [],
      "name": "NormalWhiteListMintMaxCount",
      "outputs": [
        {
          "internalType": "uint256",
          "name": "",
          "type": "uint256"
        }
      ],
      "stateMutability": "view",
      "type": "function"
    },
    {
      "inputs": [
        {
          "internalType": "address",
          "name": "",
          "type": "address"
        }
      ],
      "name": "_numberMinted",
      "outputs": [
        {
          "internalType": "uint256",
          "name": "",
          "type": "uint256"
        }
      ],
      "stateMutability": "view",
      "type": "function"
    },
    {
      "inputs": [
        {
          "internalType": "address",
          "name": "to",
          "type": "address"
        },
        {
          "internalType": "uint256",
          "name": "tokenId",
          "type": "uint256"
        }
      ],
      "name": "approve",
      "outputs": [],
      "stateMutability": "nonpayable",
      "type": "function"
    },
    {
      "inputs": [
        {
          "internalType": "address",
          "name": "owner",
          "type": "address"
        }
      ],
      "name": "balanceOf",
      "outputs": [
        {
          "internalType": "uint256",
          "name": "",
          "type": "uint256"
        }
      ],
      "stateMutability": "view",
      "type": "function"
    },
    {
      "inputs": [],
      "name": "devWhiteListRoot",
      "outputs": [
        {
          "internalType": "bytes32",
          "name": "",
          "type": "bytes32"
        }
      ],
      "stateMutability": "view",
      "type": "function"
    },
    {
      "inputs": [
        {
          "internalType": "uint256",
          "name": "tokenId",
          "type": "uint256"
        }
      ],
      "name": "getApproved",
      "outputs": [
        {
          "internalType": "address",
          "name": "",
          "type": "address"
        }
      ],
      "stateMutability": "view",
      "type": "function"
    },
    {
      "inputs": [
        {
          "internalType": "address",
          "name": "owner",
          "type": "address"
        },
        {
          "internalType": "address",
          "name": "operator",
          "type": "address"
        }
      ],
      "name": "isApprovedForAll",
      "outputs": [
        {
          "internalType": "bool",
          "name": "",
          "type": "bool"
        }
      ],
      "stateMutability": "view",
      "type": "function"
    },
    {
      "inputs": [],
      "name": "isOpenBoxTime",
      "outputs": [
        {
          "internalType": "bool",
          "name": "",
          "type": "bool"
        }
      ],
      "stateMutability": "view",
      "type": "function"
    },
    {
      "inputs": [],
      "name": "isPublicMintOn",
      "outputs": [
        {
          "internalType": "bool",
          "name": "",
          "type": "bool"
        }
      ],
      "stateMutability": "view",
      "type": "function"
    },
    {
      "inputs": [],
      "name": "name",
      "outputs": [
        {
          "internalType": "string",
          "name": "",
          "type": "string"
        }
      ],
      "stateMutability": "view",
      "type": "function"
    },
    {
      "inputs": [],
      "name": "normalWhiteListRoot",
      "outputs": [
        {
          "internalType": "bytes32",
          "name": "",
          "type": "bytes32"
        }
      ],
      "stateMutability": "view",
      "type": "function"
    },
    {
      "inputs": [
        {
          "internalType": "address",
          "name": "minter",
          "type": "address"
        }
      ],
      "name": "numberMinted",
      "outputs": [
        {
          "internalType": "uint256",
          "name": "",
          "type": "uint256"
        }
      ],
      "stateMutability": "view",
      "type": "function"
    },
    {
      "inputs": [],
      "name": "openBoxTime",
      "outputs": [
        {
          "internalType": "uint256",
          "name": "",
          "type": "uint256"
        }
      ],
      "stateMutability": "view",
      "type": "function"
    },
    {
      "inputs": [],
      "name": "owner",
      "outputs": [
        {
          "internalType": "address",
          "name": "",
          "type": "address"
        }
      ],
      "stateMutability": "view",
      "type": "function"
    },
    {
      "inputs": [
        {
          "internalType": "uint256",
          "name": "quantity",
          "type": "uint256"
        }
      ],
      "name": "ownerMint",
      "outputs": [],
      "stateMutability": "nonpayable",
      "type": "function"
    },
    {
      "inputs": [
        {
          "internalType": "uint256",
          "name": "tokenId",
          "type": "uint256"
        }
      ],
      "name": "ownerOf",
      "outputs": [
        {
          "internalType": "address",
          "name": "",
          "type": "address"
        }
      ],
      "stateMutability": "view",
      "type": "function"
    },
    {
      "inputs": [
        {
          "internalType": "uint256",
          "name": "quantity",
          "type": "uint256"
        }
      ],
      "name": "publicMint",
      "outputs": [],
      "stateMutability": "payable",
      "type": "function"
    },
    {
      "inputs": [],
      "name": "publicMintStartTime",
      "outputs": [
        {
          "internalType": "uint256",
          "name": "",
          "type": "uint256"
        }
      ],
      "stateMutability": "view",
      "type": "function"
    },
    {
      "inputs": [],
      "name": "renounceOwnership",
      "outputs": [],
      "stateMutability": "nonpayable",
      "type": "function"
    },
    {
      "inputs": [
        {
          "internalType": "address",
          "name": "from",
          "type": "address"
        },
        {
          "internalType": "address",
          "name": "to",
          "type": "address"
        },
        {
          "internalType": "uint256",
          "name": "tokenId",
          "type": "uint256"
        }
      ],
      "name": "safeTransferFrom",
      "outputs": [],
      "stateMutability": "nonpayable",
      "type": "function"
    },
    {
      "inputs": [
        {
          "internalType": "address",
          "name": "from",
          "type": "address"
        },
        {
          "internalType": "address",
          "name": "to",
          "type": "address"
        },
        {
          "internalType": "uint256",
          "name": "tokenId",
          "type": "uint256"
        },
        {
          "internalType": "bytes",
          "name": "_data",
          "type": "bytes"
        }
      ],
      "name": "safeTransferFrom",
      "outputs": [],
      "stateMutability": "nonpayable",
      "type": "function"
    },
    {
      "inputs": [
        {
          "internalType": "address",
          "name": "operator",
          "type": "address"
        },
        {
          "internalType": "bool",
          "name": "approved",
          "type": "bool"
        }
      ],
      "name": "setApprovalForAll",
      "outputs": [],
      "stateMutability": "nonpayable",
      "type": "function"
    },
    {
      "inputs": [
        {
          "internalType": "bytes32",
          "name": "_devRoot",
          "type": "bytes32"
        },
        {
          "internalType": "bytes32",
          "name": "_normalRoot",
          "type": "bytes32"
        }
      ],
      "name": "setMerkleTreeRoot",
      "outputs": [],
      "stateMutability": "nonpayable",
      "type": "function"
    },
    {
      "inputs": [
        {
          "internalType": "bool",
          "name": "state",
          "type": "bool"
        }
      ],
      "name": "setMintState",
      "outputs": [],
      "stateMutability": "nonpayable",
      "type": "function"
    },
    {
      "inputs": [
        {
          "internalType": "uint256",
          "name": "openTime",
          "type": "uint256"
        }
      ],
      "name": "setOpenBoxTime",
      "outputs": [],
      "stateMutability": "nonpayable",
      "type": "function"
    },
    {
      "inputs": [
        {
          "internalType": "uint256",
          "name": "startTime",
          "type": "uint256"
        }
      ],
      "name": "setPublicMintStartTime",
      "outputs": [],
      "stateMutability": "nonpayable",
      "type": "function"
    },
    {
      "inputs": [
        {
          "internalType": "bytes4",
          "name": "interfaceId",
          "type": "bytes4"
        }
      ],
      "name": "supportsInterface",
      "outputs": [
        {
          "internalType": "bool",
          "name": "",
          "type": "bool"
        }
      ],
      "stateMutability": "view",
      "type": "function"
    },
    {
      "inputs": [],
      "name": "symbol",
      "outputs": [
        {
          "internalType": "string",
          "name": "",
          "type": "string"
        }
      ],
      "stateMutability": "view",
      "type": "function"
    },
    {
      "inputs": [
        {
          "internalType": "uint256",
          "name": "tokenId",
          "type": "uint256"
        }
      ],
      "name": "tokenURI",
      "outputs": [
        {
          "internalType": "string",
          "name": "",
          "type": "string"
        }
      ],
      "stateMutability": "view",
      "type": "function"
    },
    {
      "inputs": [
        {
          "internalType": "address",
          "name": "owner",
          "type": "address"
        }
      ],
      "name": "tokensOfOwner",
      "outputs": [
        {
          "internalType": "uint256[]",
          "name": "",
          "type": "uint256[]"
        }
      ],
      "stateMutability": "view",
      "type": "function"
    },
    {
      "inputs": [],
      "name": "totalSupply",
      "outputs": [
        {
          "internalType": "uint256",
          "name": "",
          "type": "uint256"
        }
      ],
      "stateMutability": "view",
      "type": "function"
    },
    {
      "inputs": [
        {
          "internalType": "address",
          "name": "from",
          "type": "address"
        },
        {
          "internalType": "address",
          "name": "to",
          "type": "address"
        },
        {
          "internalType": "uint256",
          "name": "tokenId",
          "type": "uint256"
        }
      ],
      "name": "transferFrom",
      "outputs": [],
      "stateMutability": "nonpayable",
      "type": "function"
    },
    {
      "inputs": [
        {
          "internalType": "address",
          "name": "newOwner",
          "type": "address"
        }
      ],
      "name": "transferOwnership",
      "outputs": [],
      "stateMutability": "nonpayable",
      "type": "function"
    },
    {
      "inputs": [
        {
          "internalType": "uint256",
          "name": "quantity",
          "type": "uint256"
        },
        {
          "internalType": "bytes32[]",
          "name": "proof",
          "type": "bytes32[]"
        }
      ],
      "name": "whiteListMint",
      "outputs": [],
      "stateMutability": "nonpayable",
      "type": "function"
    },
    {
      "inputs": [],
      "name": "withdrawMoney",
      "outputs": [],
      "stateMutability": "nonpayable",
      "type": "function"
    }
  ],
  "bytecode": "0x60a060405263ffffffff60095563ffffffff600a556001600b60006101000a81548160ff0219169083151502179055506000801b600c556000801b600d553480156200004a57600080fd5b5060405162004a9238038062004a9283398181016040528101906200007091906200025a565b6040518060400160405280601381526020017f4e6175676874792048616d73746572204e4654000000000000000000000000008152506040518060400160405280600f81526020017f4e6175676874792048616d7374657200000000000000000000000000000000008152508160019081620000ed9190620004fc565b508060029081620000ff9190620004fc565b50620001106200014760201b60201c565b6004819055505050620001386200012c6200014c60201b60201c565b6200015460201b60201c565b806080818152505050620005e3565b600090565b600033905090565b6000600760009054906101000a900473ffffffffffffffffffffffffffffffffffffffff16905081600760006101000a81548173ffffffffffffffffffffffffffffffffffffffff021916908373ffffffffffffffffffffffffffffffffffffffff1602179055508173ffffffffffffffffffffffffffffffffffffffff168173ffffffffffffffffffffffffffffffffffffffff167f8be0079c531659141344cd1fd0a4f28419497f9722a3daafe3b4186f6b6457e060405160405180910390a35050565b600080fd5b6000819050919050565b62000234816200021f565b81146200024057600080fd5b50565b600081519050620002548162000229565b92915050565b6000602082840312156200027357620002726200021a565b5b6000620002838482850162000243565b91505092915050565b600081519050919050565b7f4e487b7100000000000000000000000000000000000000000000000000000000600052604160045260246000fd5b7f4e487b7100000000000000000000000000000000000000000000000000000000600052602260045260246000fd5b600060028204905060018216806200030e57607f821691505b602082108103620003245762000323620002c6565b5b50919050565b60008190508160005260206000209050919050565b60006020601f8301049050919050565b600082821b905092915050565b6000600883026200038e7fffffffffffffffffffffffffffffffffffffffffffffffffffffffffffffffff826200034f565b6200039a86836200034f565b95508019841693508086168417925050509392505050565b6000819050919050565b6000620003dd620003d7620003d1846200021f565b620003b2565b6200021f565b9050919050565b6000819050919050565b620003f983620003bc565b620004116200040882620003e4565b8484546200035c565b825550505050565b600090565b6200042862000419565b62000435818484620003ee565b505050565b5b818110156200045d57620004516000826200041e565b6001810190506200043b565b5050565b601f821115620004ac5762000476816200032a565b62000481846200033f565b8101602085101562000491578190505b620004a9620004a0856200033f565b8301826200043a565b50505b505050565b600082821c905092915050565b6000620004d160001984600802620004b1565b1980831691505092915050565b6000620004ec8383620004be565b9150826002028217905092915050565b62000507826200028c565b67ffffffffffffffff81111562000523576200052262000297565b5b6200052f8254620002f5565b6200053c82828562000461565b600060209050601f8311600181146200057457600084156200055f578287015190505b6200056b8582620004de565b865550620005db565b601f19841662000584866200032a565b60005b82811015620005ae5784890151825560018201915060208501945060208101905062000587565b86831015620005ce5784890151620005ca601f891682620004be565b8355505b6001600288020188555050505b505050505050565b60805161447e6200061460003960008181610db401528181611050015281816119e90152611b3b015261447e6000f3fe6080604052600436106102305760003560e01c80638462151c1161012e578063c002d23d116100ab578063e88b446d1161006f578063e88b446d14610830578063e985e9c51461085b578063f19e75d414610898578063f2fde38b146108c1578063f5c04fa4146108ea57610230565b8063c002d23d14610737578063c87b56dd14610762578063d3cf00a31461079f578063dc33e681146107ca578063e2d5e6671461080757610230565b8063ac446002116100f2578063ac44600214610676578063b1d87db91461068d578063b6945c49146106b8578063b88d4fde146106e3578063bda4db871461070c57610230565b80638462151c1461058f5780638da5cb5b146105cc57806395d89b41146105f75780639fe682de14610622578063a22cb4651461064d57610230565b806326412aca116101bc5780634d388a98116101805780634d388a98146104985780635fcd80a6146104d55780636352211e146104fe57806370a082311461053b578063715018a61461057857610230565b806326412aca146103d65780632db11544146103ff57806342842e0e1461041b5780634554679f14610444578063486eb3891461046d57610230565b80630d96649c116102035780630d96649c146103035780630feed7b21461032e578063118768751461035957806318160ddd1461038257806323b872dd146103ad57610230565b806301ffc9a71461023557806306fdde0314610272578063081812fc1461029d578063095ea7b3146102da575b600080fd5b34801561024157600080fd5b5061025c60048036038101906102579190612cc8565b610915565b6040516102699190612d10565b60405180910390f35b34801561027e57600080fd5b506102876109f7565b6040516102949190612dbb565b60405180910390f35b3480156102a957600080fd5b506102c460048036038101906102bf9190612e13565b610a89565b6040516102d19190612e81565b60405180910390f35b3480156102e657600080fd5b5061030160048036038101906102fc9190612ec8565b610b0e565b005b34801561030f57600080fd5b50610318610c25565b6040516103259190612f21565b60405180910390f35b34801561033a57600080fd5b50610343610c2b565b6040516103509190612d10565b60405180910390f35b34801561036557600080fd5b50610380600480360381019061037b91906130b0565b610c3e565b005b34801561038e57600080fd5b50610397610ed1565b6040516103a4919061311b565b60405180910390f35b3480156103b957600080fd5b506103d460048036038101906103cf9190613136565b610ee0565b005b3480156103e257600080fd5b506103fd60048036038101906103f891906131b5565b610f40565b005b61041960048036038101906104149190612e13565b610f65565b005b34801561042757600080fd5b50610442600480360381019061043d9190613136565b611169565b005b34801561045057600080fd5b5061046b600480360381019061046691906131e2565b611189565b005b34801561047957600080fd5b506104826111a3565b60405161048f919061311b565b60405180910390f35b3480156104a457600080fd5b506104bf60048036038101906104ba9190613222565b6111a9565b6040516104cc919061311b565b60405180910390f35b3480156104e157600080fd5b506104fc60048036038101906104f79190612e13565b6111c1565b005b34801561050a57600080fd5b5061052560048036038101906105209190612e13565b6111d3565b6040516105329190612e81565b60405180910390f35b34801561054757600080fd5b50610562600480360381019061055d9190613222565b6111eb565b60405161056f919061311b565b60405180910390f35b34801561058457600080fd5b5061058d6112ea565b005b34801561059b57600080fd5b506105b660048036038101906105b19190613222565b6112fe565b6040516105c3919061330d565b60405180910390f35b3480156105d857600080fd5b506105e16113f7565b6040516105ee9190612e81565b60405180910390f35b34801561060357600080fd5b5061060c611421565b6040516106199190612dbb565b60405180910390f35b34801561062e57600080fd5b506106376114b3565b6040516106449190612f21565b60405180910390f35b34801561065957600080fd5b50610674600480360381019061066f919061332f565b6114b9565b005b34801561068257600080fd5b5061068b611639565b005b34801561069957600080fd5b506106a2611739565b6040516106af919061311b565b60405180910390f35b3480156106c457600080fd5b506106cd61173e565b6040516106da9190612d10565b60405180910390f35b3480156106ef57600080fd5b5061070a60048036038101906107059190613424565b61174b565b005b34801561071857600080fd5b506107216117ad565b60405161072e9190612d10565b60405180910390f35b34801561074357600080fd5b5061074c6117ba565b604051610759919061311b565b60405180910390f35b34801561076e57600080fd5b5061078960048036038101906107849190612e13565b6117c5565b6040516107969190612dbb565b60405180910390f35b3480156107ab57600080fd5b506107b46118e5565b6040516107c1919061311b565b60405180910390f35b3480156107d657600080fd5b506107f160048036038101906107ec9190613222565b6118eb565b6040516107fe919061311b565b60405180910390f35b34801561081357600080fd5b5061082e60048036038101906108299190612e13565b611934565b005b34801561083c57600080fd5b50610845611946565b604051610852919061311b565b60405180910390f35b34801561086757600080fd5b50610882600480360381019061087d91906134a7565b61194b565b60405161088f9190612d10565b60405180910390f35b3480156108a457600080fd5b506108bf60048036038101906108ba9190612e13565b6119df565b005b3480156108cd57600080fd5b506108e860048036038101906108e39190613222565b611ab6565b005b3480156108f657600080fd5b506108ff611b39565b60405161090c919061311b565b60405180910390f35b60007f80ac58cd000000000000000000000000000000000000000000000000000000007bffffffffffffffffffffffffffffffffffffffffffffffffffffffff1916827bffffffffffffffffffffffffffffffffffffffffffffffffffffffff191614806109e057507f5b5e139f000000000000000000000000000000000000000000000000000000007bffffffffffffffffffffffffffffffffffffffffffffffffffffffff1916827bffffffffffffffffffffffffffffffffffffffffffffffffffffffff1916145b806109f057506109ef82611b5d565b5b9050919050565b606060018054610a0690613516565b80601f0160208091040260200160405190810160405280929190818152602001828054610a3290613516565b8015610a7f5780601f10610a5457610100808354040283529160200191610a7f565b820191906000526020600020905b815481529060010190602001808311610a6257829003601f168201915b5050505050905090565b6000610a9482611bc7565b610ad3576040517f08c379a0000000000000000000000000000000000000000000000000000000008152600401610aca906135b9565b60405180910390fd5b6005600083815260200190815260200160002060009054906101000a900473ffffffffffffffffffffffffffffffffffffffff169050919050565b6000610b19826111d3565b90508073ffffffffffffffffffffffffffffffffffffffff168373ffffffffffffffffffffffffffffffffffffffff1603610b89576040517f08c379a0000000000000000000000000000000000000000000000000000000008152600401610b809061364b565b60405180910390fd5b8073ffffffffffffffffffffffffffffffffffffffff16610ba8611bed565b73ffffffffffffffffffffffffffffffffffffffff161480610bd75750610bd681610bd1611bed565b61194b565b5b610c16576040517f08c379a0000000000000000000000000000000000000000000000000000000008152600401610c0d906136dd565b60405180910390fd5b610c208383611bf5565b505050565b600c5481565b600b60009054906101000a900460ff1681565b3373ffffffffffffffffffffffffffffffffffffffff163273ffffffffffffffffffffffffffffffffffffffff1614610ca3576040517f7df1f81700000000000000000000000000000000000000000000000000000000815260040160405180910390fd5b600b60009054906101000a900460ff16610ce9576040517fdf5e513300000000000000000000000000000000000000000000000000000000815260040160405180910390fd5b6000610d1b8233604051602001610d009190613745565b60405160208183030381529060405280519060200120611cae565b905060006002811115610d3157610d30613760565b5b816002811115610d4457610d43613760565b5b03610d7b576040517f9ad59b9700000000000000000000000000000000000000000000000000000000815260040160405180910390fd5b60006001905060016002811115610d9557610d94613760565b5b826002811115610da857610da7613760565b5b03610db257600a90505b7f000000000000000000000000000000000000000000000000000000000000000084610ddc610ed1565b610de691906137be565b1115610e1e576040517f688ef65c00000000000000000000000000000000000000000000000000000000815260040160405180910390fd5b8084610e29336118eb565b610e3391906137be565b1115610e6b576040517fb234809100000000000000000000000000000000000000000000000000000000815260040160405180910390fd5b83600860003373ffffffffffffffffffffffffffffffffffffffff1673ffffffffffffffffffffffffffffffffffffffff1681526020019081526020016000206000828254610eba91906137be565b92505081905550610ecb3385611cf1565b50505050565b6000610edb611d0f565b905090565b610ef1610eeb611bed565b82611d2b565b610f30576040517f08c379a0000000000000000000000000000000000000000000000000000000008152600401610f2790613864565b60405180910390fd5b610f3b838383611e09565b505050565b610f48612090565b80600b60006101000a81548160ff02191690831515021790555050565b3373ffffffffffffffffffffffffffffffffffffffff163273ffffffffffffffffffffffffffffffffffffffff1614610fca576040517f7df1f81700000000000000000000000000000000000000000000000000000000815260040160405180910390fd5b600b60009054906101000a900460ff16611010576040517fdf5e513300000000000000000000000000000000000000000000000000000000815260040160405180910390fd5b61101861173e565b61104e576040517f7f45eeef00000000000000000000000000000000000000000000000000000000815260040160405180910390fd5b7f000000000000000000000000000000000000000000000000000000000000000081611078610ed1565b61108291906137be565b11156110ba576040517f688ef65c00000000000000000000000000000000000000000000000000000000815260040160405180910390fd5b8066038d7ea4c680006110cd9190613884565b341015611106576040517fa733df5e00000000000000000000000000000000000000000000000000000000815260040160405180910390fd5b80600860003373ffffffffffffffffffffffffffffffffffffffff1673ffffffffffffffffffffffffffffffffffffffff168152602001908152602001600020600082825461115591906137be565b925050819055506111663382611cf1565b50565b6111848383836040518060200160405280600081525061174b565b505050565b611191612090565b81600c8190555080600d819055505050565b600a5481565b60086020528060005260406000206000915090505481565b6111c9612090565b8060098190555050565b6000806111df8361210e565b50905080915050919050565b60008073ffffffffffffffffffffffffffffffffffffffff168273ffffffffffffffffffffffffffffffffffffffff160361125b576040517f08c379a000000000000000000000000000000000000000000000000000000000815260040161125290613938565b60405180910390fd5b60008061126661219f565b90505b6112716121a4565b8110156112e05761128181611bc7565b156112cf5761128f816111d3565b73ffffffffffffffffffffffffffffffffffffffff168473ffffffffffffffffffffffffffffffffffffffff16036112ce57816112cb90613958565b91505b5b806112d990613958565b9050611269565b5080915050919050565b6112f2612090565b6112fc60006121ae565b565b606060008061130c846111eb565b905060008167ffffffffffffffff81111561132a57611329612f41565b5b6040519080825280602002602001820160405280156113585781602001602082028036833780820191505090505b509050600061136561219f565b90505b8284146113eb5761137881611bc7565b156113e0578573ffffffffffffffffffffffffffffffffffffffff1661139d826111d3565b73ffffffffffffffffffffffffffffffffffffffff16036113df57808285806001019650815181106113d2576113d16139a0565b5b6020026020010181815250505b5b806001019050611368565b50809350505050919050565b6000600760009054906101000a900473ffffffffffffffffffffffffffffffffffffffff16905090565b60606002805461143090613516565b80601f016020809104026020016040519081016040528092919081815260200182805461145c90613516565b80156114a95780601f1061147e576101008083540402835291602001916114a9565b820191906000526020600020905b81548152906001019060200180831161148c57829003601f168201915b5050505050905090565b600d5481565b6114c1611bed565b73ffffffffffffffffffffffffffffffffffffffff168273ffffffffffffffffffffffffffffffffffffffff160361152e576040517f08c379a000000000000000000000000000000000000000000000000000000000815260040161152590613a1b565b60405180910390fd5b806006600061153b611bed565b73ffffffffffffffffffffffffffffffffffffffff1673ffffffffffffffffffffffffffffffffffffffff16815260200190815260200160002060008473ffffffffffffffffffffffffffffffffffffffff1673ffffffffffffffffffffffffffffffffffffffff16815260200190815260200160002060006101000a81548160ff0219169083151502179055508173ffffffffffffffffffffffffffffffffffffffff166115e8611bed565b73ffffffffffffffffffffffffffffffffffffffff167f17307eab39ab6107e8899845ad3d59bd9653f200f220920489ca2b5937696c318360405161162d9190612d10565b60405180910390a35050565b611641612090565b600047905060008111611689576040517f08c379a000000000000000000000000000000000000000000000000000000000815260040161168090613a87565b60405180910390fd5b60003373ffffffffffffffffffffffffffffffffffffffff16826040516116af90613ad8565b60006040518083038185875af1925050503d80600081146116ec576040519150601f19603f3d011682016040523d82523d6000602084013e6116f1565b606091505b5050905080611735576040517f08c379a000000000000000000000000000000000000000000000000000000000815260040161172c90613b39565b60405180910390fd5b5050565b600181565b6000600954421015905090565b61175c611756611bed565b83611d2b565b61179b576040517f08c379a000000000000000000000000000000000000000000000000000000000815260040161179290613864565b60405180910390fd5b6117a784848484612274565b50505050565b6000600a54421015905090565b66038d7ea4c6800081565b60606117d082611bc7565b611806576040517fe7cb657c00000000000000000000000000000000000000000000000000000000815260040160405180910390fd5b61180e6117ad565b611832576040518060800160405280604281526020016142bf6042913990506118e0565b6000829050600061184e600a836118499190613b88565b6122d2565b905060006040518060400160405280600581526020017f2e6a736f6e00000000000000000000000000000000000000000000000000000081525090506000828260405160200161189f929190613bf5565b60405160208183030381529060405290506118b86123a0565b816040516020016118ca929190613bf5565b6040516020818303038152906040529450505050505b919050565b60095481565b6000600860008373ffffffffffffffffffffffffffffffffffffffff1673ffffffffffffffffffffffffffffffffffffffff168152602001908152602001600020549050919050565b61193c612090565b80600a8190555050565b600a81565b6000600660008473ffffffffffffffffffffffffffffffffffffffff1673ffffffffffffffffffffffffffffffffffffffff16815260200190815260200160002060008373ffffffffffffffffffffffffffffffffffffffff1673ffffffffffffffffffffffffffffffffffffffff16815260200190815260200160002060009054906101000a900460ff16905092915050565b6119e7612090565b7f000000000000000000000000000000000000000000000000000000000000000081611a11610ed1565b611a1b91906137be565b1115611a53576040517f688ef65c00000000000000000000000000000000000000000000000000000000815260040160405180910390fd5b80600860003373ffffffffffffffffffffffffffffffffffffffff1673ffffffffffffffffffffffffffffffffffffffff1681526020019081526020016000206000828254611aa291906137be565b92505081905550611ab33382611cf1565b50565b611abe612090565b600073ffffffffffffffffffffffffffffffffffffffff168173ffffffffffffffffffffffffffffffffffffffff1603611b2d576040517f08c379a0000000000000000000000000000000000000000000000000000000008152600401611b2490613c8b565b60405180910390fd5b611b36816121ae565b50565b7f000000000000000000000000000000000000000000000000000000000000000081565b60007f01ffc9a7000000000000000000000000000000000000000000000000000000007bffffffffffffffffffffffffffffffffffffffffffffffffffffffff1916827bffffffffffffffffffffffffffffffffffffffffffffffffffffffff1916149050919050565b6000611bd16121a4565b82108015611be6575081611be361219f565b11155b9050919050565b600033905090565b816005600083815260200190815260200160002060006101000a81548173ffffffffffffffffffffffffffffffffffffffff021916908373ffffffffffffffffffffffffffffffffffffffff160217905550808273ffffffffffffffffffffffffffffffffffffffff16611c68836111d3565b73ffffffffffffffffffffffffffffffffffffffff167f8c5be1e5ebec7d5bd14f71427d1e84f3dd0314c0f7b2291e5b200ac8c7c3b92560405160405180910390a45050565b6000611cbd83600c54846123c0565b15611ccb5760019050611ceb565b611cd883600d54846123c0565b15611ce65760029050611ceb565b600090505b92915050565b611d0b8282604051806020016040528060008152506123d7565b5050565b6000611d1961219f565b600454611d269190613cab565b905090565b6000611d3682611bc7565b611d75576040517f08c379a0000000000000000000000000000000000000000000000000000000008152600401611d6c90613d51565b60405180910390fd5b6000611d80836111d3565b90508073ffffffffffffffffffffffffffffffffffffffff168473ffffffffffffffffffffffffffffffffffffffff161480611def57508373ffffffffffffffffffffffffffffffffffffffff16611dd784610a89565b73ffffffffffffffffffffffffffffffffffffffff16145b80611e005750611dff818561194b565b5b91505092915050565b600080611e158361210e565b915091508473ffffffffffffffffffffffffffffffffffffffff168273ffffffffffffffffffffffffffffffffffffffff1614611e87576040517f08c379a0000000000000000000000000000000000000000000000000000000008152600401611e7e90613de3565b60405180910390fd5b600073ffffffffffffffffffffffffffffffffffffffff168473ffffffffffffffffffffffffffffffffffffffff1603611ef6576040517f08c379a0000000000000000000000000000000000000000000000000000000008152600401611eed90613e75565b60405180910390fd5b611f038585856001612440565b611f0e600084611bf5565b6000600184611f1d91906137be565b9050611f3381600061244690919063ffffffff16565b158015611f465750611f436121a4565b81105b15611fb257856003600083815260200190815260200160002060006101000a81548173ffffffffffffffffffffffffffffffffffffffff021916908373ffffffffffffffffffffffffffffffffffffffff160217905550611fb18160006124a190919063ffffffff16565b5b846003600086815260200190815260200160002060006101000a81548173ffffffffffffffffffffffffffffffffffffffff021916908373ffffffffffffffffffffffffffffffffffffffff1602179055508184146120205761201f8460006124a190919063ffffffff16565b5b838573ffffffffffffffffffffffffffffffffffffffff168773ffffffffffffffffffffffffffffffffffffffff167fddf252ad1be2c89b69c2b068fc378daa952ba7f163c4a11628f55a4df523b3ef60405160405180910390a461208886868660016124fe565b505050505050565b612098611bed565b73ffffffffffffffffffffffffffffffffffffffff166120b66113f7565b73ffffffffffffffffffffffffffffffffffffffff161461210c576040517f08c379a000000000000000000000000000000000000000000000000000000000815260040161210390613ee1565b60405180910390fd5b565b60008061211a83611bc7565b612159576040517f08c379a000000000000000000000000000000000000000000000000000000000815260040161215090613f73565b60405180910390fd5b61216283612504565b90506003600082815260200190815260200160002060009054906101000a900473ffffffffffffffffffffffffffffffffffffffff169150915091565b600090565b6000600454905090565b6000600760009054906101000a900473ffffffffffffffffffffffffffffffffffffffff16905081600760006101000a81548173ffffffffffffffffffffffffffffffffffffffff021916908373ffffffffffffffffffffffffffffffffffffffff1602179055508173ffffffffffffffffffffffffffffffffffffffff168173ffffffffffffffffffffffffffffffffffffffff167f8be0079c531659141344cd1fd0a4f28419497f9722a3daafe3b4186f6b6457e060405160405180910390a35050565b61227f848484611e09565b61228d848484600185612521565b6122cc576040517f08c379a00000000000000000000000000000000000000000000000000000000081526004016122c390614005565b60405180910390fd5b50505050565b6060600060016122e1846126e3565b01905060008167ffffffffffffffff811115612300576122ff612f41565b5b6040519080825280601f01601f1916602001820160405280156123325781602001600182028036833780820191505090505b509050600082602001820190505b600115612395578080600190039150507f3031323334353637383961626364656600000000000000000000000000000000600a86061a8153600a858161238957612388613b59565b5b04945060008503612340575b819350505050919050565b606060405180608001604052806048815260200161430160489139905090565b6000826123cd8584612836565b1490509392505050565b60006123e16121a4565b90506123ed848461288c565b6123fb600085838686612521565b61243a576040517f08c379a000000000000000000000000000000000000000000000000000000000815260040161243190614005565b60405180910390fd5b50505050565b50505050565b600080600883901c9050600060ff84167f8000000000000000000000000000000000000000000000000000000000000000901c9050600081866000016000858152602001908152602001600020541614159250505092915050565b6000600882901c9050600060ff83167f8000000000000000000000000000000000000000000000000000000000000000901c9050808460000160008481526020019081526020016000206000828254179250508190555050505050565b50505050565b600061251a826000612a7190919063ffffffff16565b9050919050565b60006125428573ffffffffffffffffffffffffffffffffffffffff16612b6a565b156126d5576001905060008490505b838561255d91906137be565b8110156126cf578573ffffffffffffffffffffffffffffffffffffffff1663150b7a02612588611bed565b8984876040518563ffffffff1660e01b81526004016125aa949392919061407a565b6020604051808303816000875af19250505080156125e657506040513d601f19601f820116820180604052508101906125e391906140db565b60015b612668573d8060008114612616576040519150601f19603f3d011682016040523d82523d6000602084013e61261b565b606091505b506000815103612660576040517f08c379a000000000000000000000000000000000000000000000000000000000815260040161265790614005565b60405180910390fd5b805181602001fd5b8280156126b9575063150b7a0260e01b7bffffffffffffffffffffffffffffffffffffffffffffffffffffffff1916817bffffffffffffffffffffffffffffffffffffffffffffffffffffffff1916145b92505080806126c790613958565b915050612551565b506126da565b600190505b95945050505050565b600080600090507a184f03e93ff9f4daa797ed6e38ed64bf6a1f0100000000000000008310612741577a184f03e93ff9f4daa797ed6e38ed64bf6a1f010000000000000000838161273757612736613b59565b5b0492506040810190505b6d04ee2d6d415b85acef8100000000831061277e576d04ee2d6d415b85acef8100000000838161277457612773613b59565b5b0492506020810190505b662386f26fc1000083106127ad57662386f26fc1000083816127a3576127a2613b59565b5b0492506010810190505b6305f5e10083106127d6576305f5e10083816127cc576127cb613b59565b5b0492506008810190505b61271083106127fb5761271083816127f1576127f0613b59565b5b0492506004810190505b6064831061281e576064838161281457612813613b59565b5b0492506002810190505b600a831061282d576001810190505b80915050919050565b60008082905060005b84518110156128815761286c8286838151811061285f5761285e6139a0565b5b6020026020010151612b8d565b9150808061287990613958565b91505061283f565b508091505092915050565b60006128966121a4565b9050600082116128db576040517f08c379a00000000000000000000000000000000000000000000000000000000081526004016128d29061417a565b60405180910390fd5b600073ffffffffffffffffffffffffffffffffffffffff168373ffffffffffffffffffffffffffffffffffffffff160361294a576040517f08c379a00000000000000000000000000000000000000000000000000000000081526004016129419061420c565b60405180910390fd5b6129576000848385612440565b816004600082825461296991906137be565b92505081905550826003600083815260200190815260200160002060006101000a81548173ffffffffffffffffffffffffffffffffffffffff021916908373ffffffffffffffffffffffffffffffffffffffff1602179055506129d68160006124a190919063ffffffff16565b6129e360008483856124fe565b60008190505b82826129f591906137be565b811015612a6b57808473ffffffffffffffffffffffffffffffffffffffff16600073ffffffffffffffffffffffffffffffffffffffff167fddf252ad1be2c89b69c2b068fc378daa952ba7f163c4a11628f55a4df523b3ef60405160405180910390a48080612a6390613958565b9150506129e9565b50505050565b600080600883901c9050600060ff8416905060008560000160008481526020019081526020016000205490508160ff1881901c90506000811115612aca57612ab881612bb8565b60ff168203600884901b179350612b61565b5b600115612b605760008311612b15576040517f08c379a0000000000000000000000000000000000000000000000000000000008152600401612b0c9061429e565b60405180910390fd5b8280600190039350508560000160008481526020019081526020016000205490506000811115612b5b57612b4881612bb8565b60ff0360ff16600884901b179350612b60565b612acb565b5b50505092915050565b6000808273ffffffffffffffffffffffffffffffffffffffff163b119050919050565b6000818310612ba557612ba08284612c2a565b612bb0565b612baf8383612c2a565b5b905092915050565b60006040518061012001604052806101008152602001614349610100913960f87e818283848586878898a8b8c8d8e8f929395969799a9b9d9e9faaeb6bedeeff612c0185612c41565b02901c81518110612c1557612c146139a0565b5b602001015160f81c60f81b60f81c9050919050565b600082600052816020526040600020905092915050565b6000808211612c4f57600080fd5b8160000382169050919050565b6000604051905090565b600080fd5b600080fd5b60007fffffffff0000000000000000000000000000000000000000000000000000000082169050919050565b612ca581612c70565b8114612cb057600080fd5b50565b600081359050612cc281612c9c565b92915050565b600060208284031215612cde57612cdd612c66565b5b6000612cec84828501612cb3565b91505092915050565b60008115159050919050565b612d0a81612cf5565b82525050565b6000602082019050612d256000830184612d01565b92915050565b600081519050919050565b600082825260208201905092915050565b60005b83811015612d65578082015181840152602081019050612d4a565b60008484015250505050565b6000601f19601f8301169050919050565b6000612d8d82612d2b565b612d978185612d36565b9350612da7818560208601612d47565b612db081612d71565b840191505092915050565b60006020820190508181036000830152612dd58184612d82565b905092915050565b6000819050919050565b612df081612ddd565b8114612dfb57600080fd5b50565b600081359050612e0d81612de7565b92915050565b600060208284031215612e2957612e28612c66565b5b6000612e3784828501612dfe565b91505092915050565b600073ffffffffffffffffffffffffffffffffffffffff82169050919050565b6000612e6b82612e40565b9050919050565b612e7b81612e60565b82525050565b6000602082019050612e966000830184612e72565b92915050565b612ea581612e60565b8114612eb057600080fd5b50565b600081359050612ec281612e9c565b92915050565b60008060408385031215612edf57612ede612c66565b5b6000612eed85828601612eb3565b9250506020612efe85828601612dfe565b9150509250929050565b6000819050919050565b612f1b81612f08565b82525050565b6000602082019050612f366000830184612f12565b92915050565b600080fd5b7f4e487b7100000000000000000000000000000000000000000000000000000000600052604160045260246000fd5b612f7982612d71565b810181811067ffffffffffffffff82111715612f9857612f97612f41565b5b80604052505050565b6000612fab612c5c565b9050612fb78282612f70565b919050565b600067ffffffffffffffff821115612fd757612fd6612f41565b5b602082029050602081019050919050565b600080fd5b612ff681612f08565b811461300157600080fd5b50565b60008135905061301381612fed565b92915050565b600061302c61302784612fbc565b612fa1565b9050808382526020820190506020840283018581111561304f5761304e612fe8565b5b835b8181101561307857806130648882613004565b845260208401935050602081019050613051565b5050509392505050565b600082601f83011261309757613096612f3c565b5b81356130a7848260208601613019565b91505092915050565b600080604083850312156130c7576130c6612c66565b5b60006130d585828601612dfe565b925050602083013567ffffffffffffffff8111156130f6576130f5612c6b565b5b61310285828601613082565b9150509250929050565b61311581612ddd565b82525050565b6000602082019050613130600083018461310c565b92915050565b60008060006060848603121561314f5761314e612c66565b5b600061315d86828701612eb3565b935050602061316e86828701612eb3565b925050604061317f86828701612dfe565b9150509250925092565b61319281612cf5565b811461319d57600080fd5b50565b6000813590506131af81613189565b92915050565b6000602082840312156131cb576131ca612c66565b5b60006131d9848285016131a0565b91505092915050565b600080604083850312156131f9576131f8612c66565b5b600061320785828601613004565b925050602061321885828601613004565b9150509250929050565b60006020828403121561323857613237612c66565b5b600061324684828501612eb3565b91505092915050565b600081519050919050565b600082825260208201905092915050565b6000819050602082019050919050565b61328481612ddd565b82525050565b6000613296838361327b565b60208301905092915050565b6000602082019050919050565b60006132ba8261324f565b6132c4818561325a565b93506132cf8361326b565b8060005b838110156133005781516132e7888261328a565b97506132f2836132a2565b9250506001810190506132d3565b5085935050505092915050565b6000602082019050818103600083015261332781846132af565b905092915050565b6000806040838503121561334657613345612c66565b5b600061335485828601612eb3565b9250506020613365858286016131a0565b9150509250929050565b600080fd5b600067ffffffffffffffff82111561338f5761338e612f41565b5b61339882612d71565b9050602081019050919050565b82818337600083830152505050565b60006133c76133c284613374565b612fa1565b9050828152602081018484840111156133e3576133e261336f565b5b6133ee8482856133a5565b509392505050565b600082601f83011261340b5761340a612f3c565b5b813561341b8482602086016133b4565b91505092915050565b6000806000806080858703121561343e5761343d612c66565b5b600061344c87828801612eb3565b945050602061345d87828801612eb3565b935050604061346e87828801612dfe565b925050606085013567ffffffffffffffff81111561348f5761348e612c6b565b5b61349b878288016133f6565b91505092959194509250565b600080604083850312156134be576134bd612c66565b5b60006134cc85828601612eb3565b92505060206134dd85828601612eb3565b9150509250929050565b7f4e487b7100000000000000000000000000000000000000000000000000000000600052602260045260246000fd5b6000600282049050600182168061352e57607f821691505b602082108103613541576135406134e7565b5b50919050565b7f4552433732315073693a20617070726f76656420717565727920666f72206e6f60008201527f6e6578697374656e7420746f6b656e0000000000000000000000000000000000602082015250565b60006135a3602f83612d36565b91506135ae82613547565b604082019050919050565b600060208201905081810360008301526135d281613596565b9050919050565b7f4552433732315073693a20617070726f76616c20746f2063757272656e74206f60008201527f776e657200000000000000000000000000000000000000000000000000000000602082015250565b6000613635602483612d36565b9150613640826135d9565b604082019050919050565b6000602082019050818103600083015261366481613628565b9050919050565b7f4552433732315073693a20617070726f76652063616c6c6572206973206e6f7460008201527f206f776e6572206e6f7220617070726f76656420666f7220616c6c0000000000602082015250565b60006136c7603b83612d36565b91506136d28261366b565b604082019050919050565b600060208201905081810360008301526136f6816136ba565b9050919050565b60008160601b9050919050565b6000613715826136fd565b9050919050565b60006137278261370a565b9050919050565b61373f61373a82612e60565b61371c565b82525050565b6000613751828461372e565b60148201915081905092915050565b7f4e487b7100000000000000000000000000000000000000000000000000000000600052602160045260246000fd5b7f4e487b7100000000000000000000000000000000000000000000000000000000600052601160045260246000fd5b60006137c982612ddd565b91506137d483612ddd565b92508282019050808211156137ec576137eb61378f565b5b92915050565b7f4552433732315073693a207472616e736665722063616c6c6572206973206e6f60008201527f74206f776e6572206e6f7220617070726f766564000000000000000000000000602082015250565b600061384e603483612d36565b9150613859826137f2565b604082019050919050565b6000602082019050818103600083015261387d81613841565b9050919050565b600061388f82612ddd565b915061389a83612ddd565b92508282026138a881612ddd565b915082820484148315176138bf576138be61378f565b5b5092915050565b7f4552433732315073693a2062616c616e636520717565727920666f722074686560008201527f207a65726f206164647265737300000000000000000000000000000000000000602082015250565b6000613922602d83612d36565b915061392d826138c6565b604082019050919050565b6000602082019050818103600083015261395181613915565b9050919050565b600061396382612ddd565b91507fffffffffffffffffffffffffffffffffffffffffffffffffffffffffffffffff82036139955761399461378f565b5b600182019050919050565b7f4e487b7100000000000000000000000000000000000000000000000000000000600052603260045260246000fd5b7f4552433732315073693a20617070726f766520746f2063616c6c657200000000600082015250565b6000613a05601c83612d36565b9150613a10826139cf565b602082019050919050565b60006020820190508181036000830152613a34816139f8565b9050919050565b7f4e6f206574686572206c65667420746f20776974686472617700000000000000600082015250565b6000613a71601983612d36565b9150613a7c82613a3b565b602082019050919050565b60006020820190508181036000830152613aa081613a64565b9050919050565b600081905092915050565b50565b6000613ac2600083613aa7565b9150613acd82613ab2565b600082019050919050565b6000613ae382613ab5565b9150819050919050565b7f5472616e73666572206661696c65640000000000000000000000000000000000600082015250565b6000613b23600f83612d36565b9150613b2e82613aed565b602082019050919050565b60006020820190508181036000830152613b5281613b16565b9050919050565b7f4e487b7100000000000000000000000000000000000000000000000000000000600052601260045260246000fd5b6000613b9382612ddd565b9150613b9e83612ddd565b925082613bae57613bad613b59565b5b828206905092915050565b600081905092915050565b6000613bcf82612d2b565b613bd98185613bb9565b9350613be9818560208601612d47565b80840191505092915050565b6000613c018285613bc4565b9150613c0d8284613bc4565b91508190509392505050565b7f4f776e61626c653a206e6577206f776e657220697320746865207a65726f206160008201527f6464726573730000000000000000000000000000000000000000000000000000602082015250565b6000613c75602683612d36565b9150613c8082613c19565b604082019050919050565b60006020820190508181036000830152613ca481613c68565b9050919050565b6000613cb682612ddd565b9150613cc183612ddd565b9250828203905081811115613cd957613cd861378f565b5b92915050565b7f4552433732315073693a206f70657261746f7220717565727920666f72206e6f60008201527f6e6578697374656e7420746f6b656e0000000000000000000000000000000000602082015250565b6000613d3b602f83612d36565b9150613d4682613cdf565b604082019050919050565b60006020820190508181036000830152613d6a81613d2e565b9050919050565b7f4552433732315073693a207472616e73666572206f6620746f6b656e2074686160008201527f74206973206e6f74206f776e0000000000000000000000000000000000000000602082015250565b6000613dcd602c83612d36565b9150613dd882613d71565b604082019050919050565b60006020820190508181036000830152613dfc81613dc0565b9050919050565b7f4552433732315073693a207472616e7366657220746f20746865207a65726f2060008201527f6164647265737300000000000000000000000000000000000000000000000000602082015250565b6000613e5f602783612d36565b9150613e6a82613e03565b604082019050919050565b60006020820190508181036000830152613e8e81613e52565b9050919050565b7f4f776e61626c653a2063616c6c6572206973206e6f7420746865206f776e6572600082015250565b6000613ecb602083612d36565b9150613ed682613e95565b602082019050919050565b60006020820190508181036000830152613efa81613ebe565b9050919050565b7f4552433732315073693a206f776e657220717565727920666f72206e6f6e657860008201527f697374656e7420746f6b656e0000000000000000000000000000000000000000602082015250565b6000613f5d602c83612d36565b9150613f6882613f01565b604082019050919050565b60006020820190508181036000830152613f8c81613f50565b9050919050565b7f4552433732315073693a207472616e7366657220746f206e6f6e20455243373260008201527f31526563656976657220696d706c656d656e7465720000000000000000000000602082015250565b6000613fef603583612d36565b9150613ffa82613f93565b604082019050919050565b6000602082019050818103600083015261401e81613fe2565b9050919050565b600081519050919050565b600082825260208201905092915050565b600061404c82614025565b6140568185614030565b9350614066818560208601612d47565b61406f81612d71565b840191505092915050565b600060808201905061408f6000830187612e72565b61409c6020830186612e72565b6140a9604083018561310c565b81810360608301526140bb8184614041565b905095945050505050565b6000815190506140d581612c9c565b92915050565b6000602082840312156140f1576140f0612c66565b5b60006140ff848285016140c6565b91505092915050565b7f4552433732315073693a207175616e74697479206d757374206265206772656160008201527f7465722030000000000000000000000000000000000000000000000000000000602082015250565b6000614164602583612d36565b915061416f82614108565b604082019050919050565b6000602082019050818103600083015261419381614157565b9050919050565b7f4552433732315073693a206d696e7420746f20746865207a65726f206164647260008201527f6573730000000000000000000000000000000000000000000000000000000000602082015250565b60006141f6602383612d36565b91506142018261419a565b604082019050919050565b60006020820190508181036000830152614225816141e9565b9050919050565b7f4269744d6170733a205468652073657420626974206265666f7265207468652060008201527f696e64657820646f65736e27742065786973742e000000000000000000000000602082015250565b6000614288603483612d36565b91506142938261422c565b604082019050919050565b600060208201905081810360008301526142b78161427b565b905091905056fe697066733a2f2f6261666b726569646974626a34613533366962777572733662347834356979716e64347636773568356a343268346c656870706777793567736665697066733a2f2f62616679626569646f3261666c7a6834613368687032696963746e68346e6f68777a78637275686a623578647070347667686a6e773463756a64752f6d6574612f0001020903110a19042112290b311a3905412245134d2a550c5d32651b6d3a7506264262237d468514804e8d2b95569d0d495ea533a966b11c886eb93bc176c9071727374353637324837e9b47af86c7155181ad4fd18ed32c9096db57d59ee30e2e4a6a5f92a6be3498aae067ddb2eb1d5989b56fd7baf33ca0c2ee77e5caf7ff0810182028303840444c545c646c7425617c847f8c949c48a4a8b087b8c0c816365272829aaec650acd0d28fdad4e22d6991bd97dfdcea58b4d6f29fede4f6fe0f1f2f3f4b5b6b607b8b93a3a7b7bf357199c5abcfd9e168bcdee9b3f1ecf5fd1e3e5a7a8aa2b670c4ced8bbe8f0f4fc3d79a1c3cde7effb78cce6facbf9f8a2646970667358221220bee431103ac1a954e53c9fba9107d714da44c528d86d772f95569e6239e140ef64736f6c63430008110033",
  "linkReferences": {},
  "deployedLinkReferences": {}
}